{
  "_format": "hh-sol-artifact-1",
  "contractName": "NFT",
  "sourceName": "contracts/NFT.sol",
  "abi": [
    {
      "inputs": [],
      "stateMutability": "nonpayable",
      "type": "constructor"
    },
    {
      "inputs": [
        {
          "internalType": "address",
          "name": "sender",
          "type": "address"
        },
        {
          "internalType": "uint256",
          "name": "tokenId",
          "type": "uint256"
        },
        {
          "internalType": "address",
          "name": "owner",
          "type": "address"
        }
      ],
      "name": "ERC721IncorrectOwner",
      "type": "error"
    },
    {
      "inputs": [
        {
          "internalType": "address",
          "name": "operator",
          "type": "address"
        },
        {
          "internalType": "uint256",
          "name": "tokenId",
          "type": "uint256"
        }
      ],
      "name": "ERC721InsufficientApproval",
      "type": "error"
    },
    {
      "inputs": [
        {
          "internalType": "address",
          "name": "approver",
          "type": "address"
        }
      ],
      "name": "ERC721InvalidApprover",
      "type": "error"
    },
    {
      "inputs": [
        {
          "internalType": "address",
          "name": "operator",
          "type": "address"
        }
      ],
      "name": "ERC721InvalidOperator",
      "type": "error"
    },
    {
      "inputs": [
        {
          "internalType": "address",
          "name": "owner",
          "type": "address"
        }
      ],
      "name": "ERC721InvalidOwner",
      "type": "error"
    },
    {
      "inputs": [
        {
          "internalType": "address",
          "name": "receiver",
          "type": "address"
        }
      ],
      "name": "ERC721InvalidReceiver",
      "type": "error"
    },
    {
      "inputs": [
        {
          "internalType": "address",
          "name": "sender",
          "type": "address"
        }
      ],
      "name": "ERC721InvalidSender",
      "type": "error"
    },
    {
      "inputs": [
        {
          "internalType": "uint256",
          "name": "tokenId",
          "type": "uint256"
        }
      ],
      "name": "ERC721NonexistentToken",
      "type": "error"
    },
    {
      "inputs": [
        {
          "internalType": "uint256",
          "name": "sendedAmount",
          "type": "uint256"
        },
        {
          "internalType": "uint256",
          "name": "nftCost",
          "type": "uint256"
        }
      ],
      "name": "NotEnoughMoney",
      "type": "error"
    },
    {
      "inputs": [
        {
          "internalType": "address",
          "name": "owner",
          "type": "address"
        }
      ],
      "name": "OwnableInvalidOwner",
      "type": "error"
    },
    {
      "inputs": [
        {
          "internalType": "address",
          "name": "account",
          "type": "address"
        }
      ],
      "name": "OwnableUnauthorizedAccount",
      "type": "error"
    },
    {
      "inputs": [
        {
          "internalType": "address",
          "name": "to",
          "type": "address"
        },
        {
          "internalType": "uint256",
          "name": "amount",
          "type": "uint256"
        }
      ],
      "name": "TransferError",
      "type": "error"
    },
    {
      "anonymous": false,
      "inputs": [
        {
          "indexed": true,
          "internalType": "address",
          "name": "owner",
          "type": "address"
        },
        {
          "indexed": true,
          "internalType": "address",
          "name": "approved",
          "type": "address"
        },
        {
          "indexed": true,
          "internalType": "uint256",
          "name": "tokenId",
          "type": "uint256"
        }
      ],
      "name": "Approval",
      "type": "event"
    },
    {
      "anonymous": false,
      "inputs": [
        {
          "indexed": true,
          "internalType": "address",
          "name": "owner",
          "type": "address"
        },
        {
          "indexed": true,
          "internalType": "address",
          "name": "operator",
          "type": "address"
        },
        {
          "indexed": false,
          "internalType": "bool",
          "name": "approved",
          "type": "bool"
        }
      ],
      "name": "ApprovalForAll",
      "type": "event"
    },
    {
      "anonymous": false,
      "inputs": [
        {
          "indexed": true,
          "internalType": "address",
          "name": "previousOwner",
          "type": "address"
        },
        {
          "indexed": true,
          "internalType": "address",
          "name": "newOwner",
          "type": "address"
        }
      ],
      "name": "OwnershipTransferred",
      "type": "event"
    },
    {
      "anonymous": false,
      "inputs": [
        {
          "indexed": true,
          "internalType": "address",
          "name": "from",
          "type": "address"
        },
        {
          "indexed": true,
          "internalType": "address",
          "name": "to",
          "type": "address"
        },
        {
          "indexed": true,
          "internalType": "uint256",
          "name": "tokenId",
          "type": "uint256"
        }
      ],
      "name": "Transfer",
      "type": "event"
    },
    {
      "inputs": [],
      "name": "BASE_URI",
      "outputs": [
        {
          "internalType": "string",
          "name": "",
          "type": "string"
        }
      ],
      "stateMutability": "view",
      "type": "function"
    },
    {
      "inputs": [],
      "name": "BASIC_COST",
      "outputs": [
        {
          "internalType": "uint256",
          "name": "",
          "type": "uint256"
        }
      ],
      "stateMutability": "view",
      "type": "function"
    },
    {
      "inputs": [
        {
          "internalType": "address",
          "name": "to",
          "type": "address"
        },
        {
          "internalType": "uint256",
          "name": "tokenId",
          "type": "uint256"
        }
      ],
      "name": "approve",
      "outputs": [],
      "stateMutability": "nonpayable",
      "type": "function"
    },
    {
      "inputs": [
        {
          "internalType": "address",
          "name": "owner",
          "type": "address"
        }
      ],
      "name": "balanceOf",
      "outputs": [
        {
          "internalType": "uint256",
          "name": "",
          "type": "uint256"
        }
      ],
      "stateMutability": "view",
      "type": "function"
    },
    {
      "inputs": [
        {
          "internalType": "uint256",
          "name": "newCost",
          "type": "uint256"
        }
      ],
      "name": "changeBasicCost",
      "outputs": [],
      "stateMutability": "nonpayable",
      "type": "function"
    },
    {
      "inputs": [
        {
          "internalType": "uint256",
          "name": "tokenId",
          "type": "uint256"
        }
      ],
      "name": "getApproved",
      "outputs": [
        {
          "internalType": "address",
          "name": "",
          "type": "address"
        }
      ],
      "stateMutability": "view",
      "type": "function"
    },
    {
      "inputs": [
        {
          "internalType": "address",
          "name": "owner",
          "type": "address"
        },
        {
          "internalType": "address",
          "name": "operator",
          "type": "address"
        }
      ],
      "name": "isApprovedForAll",
      "outputs": [
        {
          "internalType": "bool",
          "name": "",
          "type": "bool"
        }
      ],
      "stateMutability": "view",
      "type": "function"
    },
    {
      "inputs": [],
      "name": "mint",
      "outputs": [],
      "stateMutability": "payable",
      "type": "function"
    },
    {
      "inputs": [],
      "name": "name",
      "outputs": [
        {
          "internalType": "string",
          "name": "",
          "type": "string"
        }
      ],
      "stateMutability": "view",
      "type": "function"
    },
    {
      "inputs": [],
      "name": "owner",
      "outputs": [
        {
          "internalType": "address",
          "name": "",
          "type": "address"
        }
      ],
      "stateMutability": "view",
      "type": "function"
    },
    {
      "inputs": [
        {
          "internalType": "uint256",
          "name": "tokenId",
          "type": "uint256"
        }
      ],
      "name": "ownerOf",
      "outputs": [
        {
          "internalType": "address",
          "name": "",
          "type": "address"
        }
      ],
      "stateMutability": "view",
      "type": "function"
    },
    {
      "inputs": [],
      "name": "renounceOwnership",
      "outputs": [],
      "stateMutability": "nonpayable",
      "type": "function"
    },
    {
      "inputs": [
        {
          "internalType": "address",
          "name": "from",
          "type": "address"
        },
        {
          "internalType": "address",
          "name": "to",
          "type": "address"
        },
        {
          "internalType": "uint256",
          "name": "tokenId",
          "type": "uint256"
        }
      ],
      "name": "safeTransferFrom",
      "outputs": [],
      "stateMutability": "nonpayable",
      "type": "function"
    },
    {
      "inputs": [
        {
          "internalType": "address",
          "name": "from",
          "type": "address"
        },
        {
          "internalType": "address",
          "name": "to",
          "type": "address"
        },
        {
          "internalType": "uint256",
          "name": "tokenId",
          "type": "uint256"
        },
        {
          "internalType": "bytes",
          "name": "data",
          "type": "bytes"
        }
      ],
      "name": "safeTransferFrom",
      "outputs": [],
      "stateMutability": "nonpayable",
      "type": "function"
    },
    {
      "inputs": [
        {
          "internalType": "address",
          "name": "operator",
          "type": "address"
        },
        {
          "internalType": "bool",
          "name": "approved",
          "type": "bool"
        }
      ],
      "name": "setApprovalForAll",
      "outputs": [],
      "stateMutability": "nonpayable",
      "type": "function"
    },
    {
      "inputs": [
        {
          "internalType": "bytes4",
          "name": "interfaceId",
          "type": "bytes4"
        }
      ],
      "name": "supportsInterface",
      "outputs": [
        {
          "internalType": "bool",
          "name": "",
          "type": "bool"
        }
      ],
      "stateMutability": "view",
      "type": "function"
    },
    {
      "inputs": [],
      "name": "symbol",
      "outputs": [
        {
          "internalType": "string",
          "name": "",
          "type": "string"
        }
      ],
      "stateMutability": "view",
      "type": "function"
    },
    {
      "inputs": [
        {
          "internalType": "uint256",
          "name": "tokenId",
          "type": "uint256"
        }
      ],
      "name": "tokenURI",
      "outputs": [
        {
          "internalType": "string",
          "name": "",
          "type": "string"
        }
      ],
      "stateMutability": "view",
      "type": "function"
    },
    {
      "inputs": [
        {
          "internalType": "address",
          "name": "from",
          "type": "address"
        },
        {
          "internalType": "address",
          "name": "to",
          "type": "address"
        },
        {
          "internalType": "uint256",
          "name": "tokenId",
          "type": "uint256"
        }
      ],
      "name": "transferFrom",
      "outputs": [],
      "stateMutability": "nonpayable",
      "type": "function"
    },
    {
      "inputs": [
        {
          "internalType": "address",
          "name": "newOwner",
          "type": "address"
        }
      ],
      "name": "transferOwnership",
      "outputs": [],
      "stateMutability": "nonpayable",
      "type": "function"
    },
    {
      "inputs": [],
      "name": "withdraw",
      "outputs": [],
      "stateMutability": "nonpayable",
      "type": "function"
    }
  ],
  "bytecode": "0x6080604052655af3107a4000600755600060085534801561001f57600080fd5b5061002e61014360201b60201c565b6040518060400160405280600781526020017f536869744e4654000000000000000000000000000000000000000000000000008152506040518060400160405280600481526020017f534849540000000000000000000000000000000000000000000000000000000081525081600090816100a99190610461565b5080600190816100b99190610461565b505050600073ffffffffffffffffffffffffffffffffffffffff168173ffffffffffffffffffffffffffffffffffffffff160361012e5760006040517f1e4fbdf70000000000000000000000000000000000000000000000000000000081526004016101259190610574565b60405180910390fd5b61013d8161014b60201b60201c565b5061058f565b600033905090565b6000600660009054906101000a900473ffffffffffffffffffffffffffffffffffffffff16905081600660006101000a81548173ffffffffffffffffffffffffffffffffffffffff021916908373ffffffffffffffffffffffffffffffffffffffff1602179055508173ffffffffffffffffffffffffffffffffffffffff168173ffffffffffffffffffffffffffffffffffffffff167f8be0079c531659141344cd1fd0a4f28419497f9722a3daafe3b4186f6b6457e060405160405180910390a35050565b600081519050919050565b7f4e487b7100000000000000000000000000000000000000000000000000000000600052604160045260246000fd5b7f4e487b7100000000000000000000000000000000000000000000000000000000600052602260045260246000fd5b6000600282049050600182168061029257607f821691505b6020821081036102a5576102a461024b565b5b50919050565b60008190508160005260206000209050919050565b60006020601f8301049050919050565b600082821b905092915050565b60006008830261030d7fffffffffffffffffffffffffffffffffffffffffffffffffffffffffffffffff826102d0565b61031786836102d0565b95508019841693508086168417925050509392505050565b6000819050919050565b6000819050919050565b600061035e6103596103548461032f565b610339565b61032f565b9050919050565b6000819050919050565b61037883610343565b61038c61038482610365565b8484546102dd565b825550505050565b600090565b6103a1610394565b6103ac81848461036f565b505050565b5b818110156103d0576103c5600082610399565b6001810190506103b2565b5050565b601f821115610415576103e6816102ab565b6103ef846102c0565b810160208510156103fe578190505b61041261040a856102c0565b8301826103b1565b50505b505050565b600082821c905092915050565b60006104386000198460080261041a565b1980831691505092915050565b60006104518383610427565b9150826002028217905092915050565b61046a82610211565b67ffffffffffffffff8111156104835761048261021c565b5b61048d825461027a565b6104988282856103d4565b600060209050601f8311600181146104cb57600084156104b9578287015190505b6104c38582610445565b86555061052b565b601f1984166104d9866102ab565b60005b82811015610501578489015182556001820191506020850194506020810190506104dc565b8683101561051e578489015161051a601f891682610427565b8355505b6001600288020188555050505b505050505050565b600073ffffffffffffffffffffffffffffffffffffffff82169050919050565b600061055e82610533565b9050919050565b61056e81610553565b82525050565b60006020820190506105896000830184610565565b92915050565b61216d8061059e6000396000f3fe60806040526004361061012a5760003560e01c8063715018a6116100ab578063c5c3c9131161006f578063c5c3c913146103a9578063c87b56dd146103d2578063dbddb26a1461040f578063e985e9c51461043a578063eab106d014610477578063f2fde38b146104a25761012a565b8063715018a6146102ea5780638da5cb5b1461030157806395d89b411461032c578063a22cb46514610357578063b88d4fde146103805761012a565b806323b872dd116100f257806323b872dd146102075780633ccfd60b1461023057806342842e0e146102475780636352211e1461027057806370a08231146102ad5761012a565b806301ffc9a71461012f57806306fdde031461016c578063081812fc14610197578063095ea7b3146101d45780631249c58b146101fd575b600080fd5b34801561013b57600080fd5b506101566004803603810190610151919061191e565b6104cb565b6040516101639190611966565b60405180910390f35b34801561017857600080fd5b506101816105ad565b60405161018e9190611a11565b60405180910390f35b3480156101a357600080fd5b506101be60048036038101906101b99190611a69565b61063f565b6040516101cb9190611ad7565b60405180910390f35b3480156101e057600080fd5b506101fb60048036038101906101f69190611b1e565b61065b565b005b610205610671565b005b34801561021357600080fd5b5061022e60048036038101906102299190611b5e565b6106e8565b005b34801561023c57600080fd5b506102456107ea565b005b34801561025357600080fd5b5061026e60048036038101906102699190611b5e565b6108bd565b005b34801561027c57600080fd5b5061029760048036038101906102929190611a69565b6108dd565b6040516102a49190611ad7565b60405180910390f35b3480156102b957600080fd5b506102d460048036038101906102cf9190611bb1565b6108ef565b6040516102e19190611bed565b60405180910390f35b3480156102f657600080fd5b506102ff6109a9565b005b34801561030d57600080fd5b506103166109bd565b6040516103239190611ad7565b60405180910390f35b34801561033857600080fd5b506103416109e7565b60405161034e9190611a11565b60405180910390f35b34801561036357600080fd5b5061037e60048036038101906103799190611c34565b610a79565b005b34801561038c57600080fd5b506103a760048036038101906103a29190611da9565b610a8f565b005b3480156103b557600080fd5b506103d060048036038101906103cb9190611a69565b610ab4565b005b3480156103de57600080fd5b506103f960048036038101906103f49190611a69565b610ac6565b6040516104069190611a11565b60405180910390f35b34801561041b57600080fd5b50610424610b06565b6040516104319190611a11565b60405180910390f35b34801561044657600080fd5b50610461600480360381019061045c9190611e2c565b610b22565b60405161046e9190611966565b60405180910390f35b34801561048357600080fd5b5061048c610bb6565b6040516104999190611bed565b60405180910390f35b3480156104ae57600080fd5b506104c960048036038101906104c49190611bb1565b610bbc565b005b60007f80ac58cd000000000000000000000000000000000000000000000000000000007bffffffffffffffffffffffffffffffffffffffffffffffffffffffff1916827bffffffffffffffffffffffffffffffffffffffffffffffffffffffff1916148061059657507f5b5e139f000000000000000000000000000000000000000000000000000000007bffffffffffffffffffffffffffffffffffffffffffffffffffffffff1916827bffffffffffffffffffffffffffffffffffffffffffffffffffffffff1916145b806105a657506105a582610c42565b5b9050919050565b6060600080546105bc90611e9b565b80601f01602080910402602001604051908101604052809291908181526020018280546105e890611e9b565b80156106355780601f1061060a57610100808354040283529160200191610635565b820191906000526020600020905b81548152906001019060200180831161061857829003601f168201915b5050505050905090565b600061064a82610cac565b5061065482610d34565b9050919050565b61066d8282610668610d71565b610d79565b5050565b60075434146106bb57346007546040517f3d8d9b530000000000000000000000000000000000000000000000000000000081526004016106b2929190611ecc565b60405180910390fd5b6106ce6106c6610d71565b600854610d8b565b600860008154809291906106e190611f24565b9190505550565b600073ffffffffffffffffffffffffffffffffffffffff168273ffffffffffffffffffffffffffffffffffffffff160361075a5760006040517f64a0ae920000000000000000000000000000000000000000000000000000000081526004016107519190611ad7565b60405180910390fd5b600061076e8383610769610d71565b610e84565b90508373ffffffffffffffffffffffffffffffffffffffff168173ffffffffffffffffffffffffffffffffffffffff16146107e4578382826040517f64283d7b0000000000000000000000000000000000000000000000000000000081526004016107db93929190611f6c565b60405180910390fd5b50505050565b6107f261109e565b600047905060006108016109bd565b73ffffffffffffffffffffffffffffffffffffffff168260405161082490611fd4565b60006040518083038185875af1925050503d8060008114610861576040519150601f19603f3d011682016040523d82523d6000602084013e610866565b606091505b50509050806108736109bd565b8390916108b7576040517f55b125700000000000000000000000000000000000000000000000000000000081526004016108ae929190611fe9565b60405180910390fd5b50505050565b6108d883838360405180602001604052806000815250610a8f565b505050565b60006108e882610cac565b9050919050565b60008073ffffffffffffffffffffffffffffffffffffffff168273ffffffffffffffffffffffffffffffffffffffff16036109625760006040517f89c62b640000000000000000000000000000000000000000000000000000000081526004016109599190611ad7565b60405180910390fd5b600360008373ffffffffffffffffffffffffffffffffffffffff1673ffffffffffffffffffffffffffffffffffffffff168152602001908152602001600020549050919050565b6109b161109e565b6109bb6000611125565b565b6000600660009054906101000a900473ffffffffffffffffffffffffffffffffffffffff16905090565b6060600180546109f690611e9b565b80601f0160208091040260200160405190810160405280929190818152602001828054610a2290611e9b565b8015610a6f5780601f10610a4457610100808354040283529160200191610a6f565b820191906000526020600020905b815481529060010190602001808311610a5257829003601f168201915b5050505050905090565b610a8b610a84610d71565b83836111eb565b5050565b610a9a8484846106e8565b610aae610aa5610d71565b8585858561135a565b50505050565b610abc61109e565b8060078190555050565b6060610ad182610cac565b506000610adc61150b565b90506000815111610afc5760405180602001604052806000815250610afe565b805b915050919050565b6040518060800160405280604281526020016120f66042913981565b6000600560008473ffffffffffffffffffffffffffffffffffffffff1673ffffffffffffffffffffffffffffffffffffffff16815260200190815260200160002060008373ffffffffffffffffffffffffffffffffffffffff1673ffffffffffffffffffffffffffffffffffffffff16815260200190815260200160002060009054906101000a900460ff16905092915050565b60075481565b610bc461109e565b600073ffffffffffffffffffffffffffffffffffffffff168173ffffffffffffffffffffffffffffffffffffffff1603610c365760006040517f1e4fbdf7000000000000000000000000000000000000000000000000000000008152600401610c2d9190611ad7565b60405180910390fd5b610c3f81611125565b50565b60007f01ffc9a7000000000000000000000000000000000000000000000000000000007bffffffffffffffffffffffffffffffffffffffffffffffffffffffff1916827bffffffffffffffffffffffffffffffffffffffffffffffffffffffff1916149050919050565b600080610cb88361152b565b9050600073ffffffffffffffffffffffffffffffffffffffff168173ffffffffffffffffffffffffffffffffffffffff1603610d2b57826040517f7e273289000000000000000000000000000000000000000000000000000000008152600401610d229190611bed565b60405180910390fd5b80915050919050565b60006004600083815260200190815260200160002060009054906101000a900473ffffffffffffffffffffffffffffffffffffffff169050919050565b600033905090565b610d868383836001611568565b505050565b600073ffffffffffffffffffffffffffffffffffffffff168273ffffffffffffffffffffffffffffffffffffffff1603610dfd5760006040517f64a0ae92000000000000000000000000000000000000000000000000000000008152600401610df49190611ad7565b60405180910390fd5b6000610e0b83836000610e84565b9050600073ffffffffffffffffffffffffffffffffffffffff168173ffffffffffffffffffffffffffffffffffffffff1614610e7f5760006040517f73c6ac6e000000000000000000000000000000000000000000000000000000008152600401610e769190611ad7565b60405180910390fd5b505050565b600080610e908461152b565b9050600073ffffffffffffffffffffffffffffffffffffffff168373ffffffffffffffffffffffffffffffffffffffff1614610ed257610ed181848661172d565b5b600073ffffffffffffffffffffffffffffffffffffffff168173ffffffffffffffffffffffffffffffffffffffff1614610f6357610f14600085600080611568565b6001600360008373ffffffffffffffffffffffffffffffffffffffff1673ffffffffffffffffffffffffffffffffffffffff168152602001908152602001600020600082825403925050819055505b600073ffffffffffffffffffffffffffffffffffffffff168573ffffffffffffffffffffffffffffffffffffffff1614610fe6576001600360008773ffffffffffffffffffffffffffffffffffffffff1673ffffffffffffffffffffffffffffffffffffffff168152602001908152602001600020600082825401925050819055505b846002600086815260200190815260200160002060006101000a81548173ffffffffffffffffffffffffffffffffffffffff021916908373ffffffffffffffffffffffffffffffffffffffff160217905550838573ffffffffffffffffffffffffffffffffffffffff168273ffffffffffffffffffffffffffffffffffffffff167fddf252ad1be2c89b69c2b068fc378daa952ba7f163c4a11628f55a4df523b3ef60405160405180910390a4809150509392505050565b6110a6610d71565b73ffffffffffffffffffffffffffffffffffffffff166110c46109bd565b73ffffffffffffffffffffffffffffffffffffffff1614611123576110e7610d71565b6040517f118cdaa700000000000000000000000000000000000000000000000000000000815260040161111a9190611ad7565b60405180910390fd5b565b6000600660009054906101000a900473ffffffffffffffffffffffffffffffffffffffff16905081600660006101000a81548173ffffffffffffffffffffffffffffffffffffffff021916908373ffffffffffffffffffffffffffffffffffffffff1602179055508173ffffffffffffffffffffffffffffffffffffffff168173ffffffffffffffffffffffffffffffffffffffff167f8be0079c531659141344cd1fd0a4f28419497f9722a3daafe3b4186f6b6457e060405160405180910390a35050565b600073ffffffffffffffffffffffffffffffffffffffff168273ffffffffffffffffffffffffffffffffffffffff160361125c57816040517f5b08ba180000000000000000000000000000000000000000000000000000000081526004016112539190611ad7565b60405180910390fd5b80600560008573ffffffffffffffffffffffffffffffffffffffff1673ffffffffffffffffffffffffffffffffffffffff16815260200190815260200160002060008473ffffffffffffffffffffffffffffffffffffffff1673ffffffffffffffffffffffffffffffffffffffff16815260200190815260200160002060006101000a81548160ff0219169083151502179055508173ffffffffffffffffffffffffffffffffffffffff168373ffffffffffffffffffffffffffffffffffffffff167f17307eab39ab6107e8899845ad3d59bd9653f200f220920489ca2b5937696c318360405161134d9190611966565b60405180910390a3505050565b60008373ffffffffffffffffffffffffffffffffffffffff163b1115611504578273ffffffffffffffffffffffffffffffffffffffff1663150b7a02868685856040518563ffffffff1660e01b81526004016113b99493929190612067565b6020604051808303816000875af19250505080156113f557506040513d601f19601f820116820180604052508101906113f291906120c8565b60015b611479573d8060008114611425576040519150601f19603f3d011682016040523d82523d6000602084013e61142a565b606091505b50600081510361147157836040517f64a0ae920000000000000000000000000000000000000000000000000000000081526004016114689190611ad7565b60405180910390fd5b805160208201fd5b63150b7a0260e01b7bffffffffffffffffffffffffffffffffffffffffffffffffffffffff1916817bffffffffffffffffffffffffffffffffffffffffffffffffffffffff19161461150257836040517f64a0ae920000000000000000000000000000000000000000000000000000000081526004016114f99190611ad7565b60405180910390fd5b505b5050505050565b60606040518060800160405280604281526020016120f660429139905090565b60006002600083815260200190815260200160002060009054906101000a900473ffffffffffffffffffffffffffffffffffffffff169050919050565b80806115a15750600073ffffffffffffffffffffffffffffffffffffffff168273ffffffffffffffffffffffffffffffffffffffff1614155b156116d55760006115b184610cac565b9050600073ffffffffffffffffffffffffffffffffffffffff168373ffffffffffffffffffffffffffffffffffffffff161415801561161c57508273ffffffffffffffffffffffffffffffffffffffff168173ffffffffffffffffffffffffffffffffffffffff1614155b801561162f575061162d8184610b22565b155b1561167157826040517fa9fbf51f0000000000000000000000000000000000000000000000000000000081526004016116689190611ad7565b60405180910390fd5b81156116d357838573ffffffffffffffffffffffffffffffffffffffff168273ffffffffffffffffffffffffffffffffffffffff167f8c5be1e5ebec7d5bd14f71427d1e84f3dd0314c0f7b2291e5b200ac8c7c3b92560405160405180910390a45b505b836004600085815260200190815260200160002060006101000a81548173ffffffffffffffffffffffffffffffffffffffff021916908373ffffffffffffffffffffffffffffffffffffffff16021790555050505050565b6117388383836117f1565b6117ec57600073ffffffffffffffffffffffffffffffffffffffff168373ffffffffffffffffffffffffffffffffffffffff16036117ad57806040517f7e2732890000000000000000000000000000000000000000000000000000000081526004016117a49190611bed565b60405180910390fd5b81816040517f177e802f0000000000000000000000000000000000000000000000000000000081526004016117e3929190611fe9565b60405180910390fd5b505050565b60008073ffffffffffffffffffffffffffffffffffffffff168373ffffffffffffffffffffffffffffffffffffffff16141580156118a957508273ffffffffffffffffffffffffffffffffffffffff168473ffffffffffffffffffffffffffffffffffffffff16148061186a57506118698484610b22565b5b806118a857508273ffffffffffffffffffffffffffffffffffffffff1661189083610d34565b73ffffffffffffffffffffffffffffffffffffffff16145b5b90509392505050565b6000604051905090565b600080fd5b600080fd5b60007fffffffff0000000000000000000000000000000000000000000000000000000082169050919050565b6118fb816118c6565b811461190657600080fd5b50565b600081359050611918816118f2565b92915050565b600060208284031215611934576119336118bc565b5b600061194284828501611909565b91505092915050565b60008115159050919050565b6119608161194b565b82525050565b600060208201905061197b6000830184611957565b92915050565b600081519050919050565b600082825260208201905092915050565b60005b838110156119bb5780820151818401526020810190506119a0565b60008484015250505050565b6000601f19601f8301169050919050565b60006119e382611981565b6119ed818561198c565b93506119fd81856020860161199d565b611a06816119c7565b840191505092915050565b60006020820190508181036000830152611a2b81846119d8565b905092915050565b6000819050919050565b611a4681611a33565b8114611a5157600080fd5b50565b600081359050611a6381611a3d565b92915050565b600060208284031215611a7f57611a7e6118bc565b5b6000611a8d84828501611a54565b91505092915050565b600073ffffffffffffffffffffffffffffffffffffffff82169050919050565b6000611ac182611a96565b9050919050565b611ad181611ab6565b82525050565b6000602082019050611aec6000830184611ac8565b92915050565b611afb81611ab6565b8114611b0657600080fd5b50565b600081359050611b1881611af2565b92915050565b60008060408385031215611b3557611b346118bc565b5b6000611b4385828601611b09565b9250506020611b5485828601611a54565b9150509250929050565b600080600060608486031215611b7757611b766118bc565b5b6000611b8586828701611b09565b9350506020611b9686828701611b09565b9250506040611ba786828701611a54565b9150509250925092565b600060208284031215611bc757611bc66118bc565b5b6000611bd584828501611b09565b91505092915050565b611be781611a33565b82525050565b6000602082019050611c026000830184611bde565b92915050565b611c118161194b565b8114611c1c57600080fd5b50565b600081359050611c2e81611c08565b92915050565b60008060408385031215611c4b57611c4a6118bc565b5b6000611c5985828601611b09565b9250506020611c6a85828601611c1f565b9150509250929050565b600080fd5b600080fd5b7f4e487b7100000000000000000000000000000000000000000000000000000000600052604160045260246000fd5b611cb6826119c7565b810181811067ffffffffffffffff82111715611cd557611cd4611c7e565b5b80604052505050565b6000611ce86118b2565b9050611cf48282611cad565b919050565b600067ffffffffffffffff821115611d1457611d13611c7e565b5b611d1d826119c7565b9050602081019050919050565b82818337600083830152505050565b6000611d4c611d4784611cf9565b611cde565b905082815260208101848484011115611d6857611d67611c79565b5b611d73848285611d2a565b509392505050565b600082601f830112611d9057611d8f611c74565b5b8135611da0848260208601611d39565b91505092915050565b60008060008060808587031215611dc357611dc26118bc565b5b6000611dd187828801611b09565b9450506020611de287828801611b09565b9350506040611df387828801611a54565b925050606085013567ffffffffffffffff811115611e1457611e136118c1565b5b611e2087828801611d7b565b91505092959194509250565b60008060408385031215611e4357611e426118bc565b5b6000611e5185828601611b09565b9250506020611e6285828601611b09565b9150509250929050565b7f4e487b7100000000000000000000000000000000000000000000000000000000600052602260045260246000fd5b60006002820490506001821680611eb357607f821691505b602082108103611ec657611ec5611e6c565b5b50919050565b6000604082019050611ee16000830185611bde565b611eee6020830184611bde565b9392505050565b7f4e487b7100000000000000000000000000000000000000000000000000000000600052601160045260246000fd5b6000611f2f82611a33565b91507fffffffffffffffffffffffffffffffffffffffffffffffffffffffffffffffff8203611f6157611f60611ef5565b5b600182019050919050565b6000606082019050611f816000830186611ac8565b611f8e6020830185611bde565b611f9b6040830184611ac8565b949350505050565b600081905092915050565b50565b6000611fbe600083611fa3565b9150611fc982611fae565b600082019050919050565b6000611fdf82611fb1565b9150819050919050565b6000604082019050611ffe6000830185611ac8565b61200b6020830184611bde565b9392505050565b600081519050919050565b600082825260208201905092915050565b600061203982612012565b612043818561201d565b935061205381856020860161199d565b61205c816119c7565b840191505092915050565b600060808201905061207c6000830187611ac8565b6120896020830186611ac8565b6120966040830185611bde565b81810360608301526120a8818461202e565b905095945050505050565b6000815190506120c2816118f2565b92915050565b6000602082840312156120de576120dd6118bc565b5b60006120ec848285016120b3565b9150509291505056fe697066733a2f2f6261666b72656965686b626276626c32626237726775377a6576716472747836726b6234707868616c787477786b69706869617476706767786d69a2646970667358221220f8d49f45b97583cdb5413acf6aab55ab4c4d7a2066457dcd89e0accebb40626a64736f6c634300081c0033",
  "linkReferences": {},
  "deployedLinkReferences": {}
}