{
  "_format": "hh-sol-artifact-1",
  "contractName": "NFT",
  "sourceName": "contracts/NFT.sol",
  "abi": [
    {
      "inputs": [],
      "stateMutability": "nonpayable",
      "type": "constructor"
    },
    {
      "inputs": [
        {
          "internalType": "address",
          "name": "sender",
          "type": "address"
        },
        {
          "internalType": "uint256",
          "name": "tokenId",
          "type": "uint256"
        },
        {
          "internalType": "address",
          "name": "owner",
          "type": "address"
        }
      ],
      "name": "ERC721IncorrectOwner",
      "type": "error"
    },
    {
      "inputs": [
        {
          "internalType": "address",
          "name": "operator",
          "type": "address"
        },
        {
          "internalType": "uint256",
          "name": "tokenId",
          "type": "uint256"
        }
      ],
      "name": "ERC721InsufficientApproval",
      "type": "error"
    },
    {
      "inputs": [
        {
          "internalType": "address",
          "name": "approver",
          "type": "address"
        }
      ],
      "name": "ERC721InvalidApprover",
      "type": "error"
    },
    {
      "inputs": [
        {
          "internalType": "address",
          "name": "operator",
          "type": "address"
        }
      ],
      "name": "ERC721InvalidOperator",
      "type": "error"
    },
    {
      "inputs": [
        {
          "internalType": "address",
          "name": "owner",
          "type": "address"
        }
      ],
      "name": "ERC721InvalidOwner",
      "type": "error"
    },
    {
      "inputs": [
        {
          "internalType": "address",
          "name": "receiver",
          "type": "address"
        }
      ],
      "name": "ERC721InvalidReceiver",
      "type": "error"
    },
    {
      "inputs": [
        {
          "internalType": "address",
          "name": "sender",
          "type": "address"
        }
      ],
      "name": "ERC721InvalidSender",
      "type": "error"
    },
    {
      "inputs": [
        {
          "internalType": "uint256",
          "name": "tokenId",
          "type": "uint256"
        }
      ],
      "name": "ERC721NonexistentToken",
      "type": "error"
    },
    {
      "inputs": [
        {
          "internalType": "uint256",
          "name": "sentAmount",
          "type": "uint256"
        },
        {
          "internalType": "uint256",
          "name": "nftCost",
          "type": "uint256"
        }
      ],
      "name": "NotEnoughMoney",
      "type": "error"
    },
    {
      "inputs": [
        {
          "internalType": "address",
          "name": "owner",
          "type": "address"
        }
      ],
      "name": "OwnableInvalidOwner",
      "type": "error"
    },
    {
      "inputs": [
        {
          "internalType": "address",
          "name": "account",
          "type": "address"
        }
      ],
      "name": "OwnableUnauthorizedAccount",
      "type": "error"
    },
    {
      "inputs": [
        {
          "internalType": "address",
          "name": "to",
          "type": "address"
        },
        {
          "internalType": "uint256",
          "name": "amount",
          "type": "uint256"
        }
      ],
      "name": "TransferError",
      "type": "error"
    },
    {
      "anonymous": false,
      "inputs": [
        {
          "indexed": true,
          "internalType": "address",
          "name": "owner",
          "type": "address"
        },
        {
          "indexed": true,
          "internalType": "address",
          "name": "approved",
          "type": "address"
        },
        {
          "indexed": true,
          "internalType": "uint256",
          "name": "tokenId",
          "type": "uint256"
        }
      ],
      "name": "Approval",
      "type": "event"
    },
    {
      "anonymous": false,
      "inputs": [
        {
          "indexed": true,
          "internalType": "address",
          "name": "owner",
          "type": "address"
        },
        {
          "indexed": true,
          "internalType": "address",
          "name": "operator",
          "type": "address"
        },
        {
          "indexed": false,
          "internalType": "bool",
          "name": "approved",
          "type": "bool"
        }
      ],
      "name": "ApprovalForAll",
      "type": "event"
    },
    {
      "anonymous": false,
      "inputs": [
        {
          "indexed": false,
          "internalType": "uint256",
          "name": "oldCost",
          "type": "uint256"
        },
        {
          "indexed": false,
          "internalType": "uint256",
          "name": "newCost",
          "type": "uint256"
        }
      ],
      "name": "BasicCostChanged",
      "type": "event"
    },
    {
      "anonymous": false,
      "inputs": [
        {
          "indexed": true,
          "internalType": "address",
          "name": "to",
          "type": "address"
        },
        {
          "indexed": true,
          "internalType": "uint256",
          "name": "tokenId",
          "type": "uint256"
        }
      ],
      "name": "Minted",
      "type": "event"
    },
    {
      "anonymous": false,
      "inputs": [
        {
          "indexed": true,
          "internalType": "address",
          "name": "previousOwner",
          "type": "address"
        },
        {
          "indexed": true,
          "internalType": "address",
          "name": "newOwner",
          "type": "address"
        }
      ],
      "name": "OwnershipTransferred",
      "type": "event"
    },
    {
      "anonymous": false,
      "inputs": [
        {
          "indexed": true,
          "internalType": "address",
          "name": "from",
          "type": "address"
        },
        {
          "indexed": true,
          "internalType": "address",
          "name": "to",
          "type": "address"
        },
        {
          "indexed": true,
          "internalType": "uint256",
          "name": "tokenId",
          "type": "uint256"
        }
      ],
      "name": "Transfer",
      "type": "event"
    },
    {
      "anonymous": false,
      "inputs": [
        {
          "indexed": true,
          "internalType": "address",
          "name": "to",
          "type": "address"
        },
        {
          "indexed": false,
          "internalType": "uint256",
          "name": "amount",
          "type": "uint256"
        }
      ],
      "name": "Withdraw",
      "type": "event"
    },
    {
      "inputs": [],
      "name": "BASIC_COST",
      "outputs": [
        {
          "internalType": "uint256",
          "name": "",
          "type": "uint256"
        }
      ],
      "stateMutability": "view",
      "type": "function"
    },
    {
      "inputs": [
        {
          "internalType": "address",
          "name": "to",
          "type": "address"
        },
        {
          "internalType": "uint256",
          "name": "tokenId",
          "type": "uint256"
        }
      ],
      "name": "approve",
      "outputs": [],
      "stateMutability": "nonpayable",
      "type": "function"
    },
    {
      "inputs": [
        {
          "internalType": "address",
          "name": "owner",
          "type": "address"
        }
      ],
      "name": "balanceOf",
      "outputs": [
        {
          "internalType": "uint256",
          "name": "",
          "type": "uint256"
        }
      ],
      "stateMutability": "view",
      "type": "function"
    },
    {
      "inputs": [
        {
          "internalType": "uint256",
          "name": "newCost",
          "type": "uint256"
        }
      ],
      "name": "changeBasicCost",
      "outputs": [],
      "stateMutability": "nonpayable",
      "type": "function"
    },
    {
      "inputs": [
        {
          "internalType": "uint256",
          "name": "tokenId",
          "type": "uint256"
        }
      ],
      "name": "getApproved",
      "outputs": [
        {
          "internalType": "address",
          "name": "",
          "type": "address"
        }
      ],
      "stateMutability": "view",
      "type": "function"
    },
    {
      "inputs": [
        {
          "internalType": "address",
          "name": "owner",
          "type": "address"
        },
        {
          "internalType": "address",
          "name": "operator",
          "type": "address"
        }
      ],
      "name": "isApprovedForAll",
      "outputs": [
        {
          "internalType": "bool",
          "name": "",
          "type": "bool"
        }
      ],
      "stateMutability": "view",
      "type": "function"
    },
    {
      "inputs": [],
      "name": "mint",
      "outputs": [],
      "stateMutability": "payable",
      "type": "function"
    },
    {
      "inputs": [],
      "name": "name",
      "outputs": [
        {
          "internalType": "string",
          "name": "",
          "type": "string"
        }
      ],
      "stateMutability": "view",
      "type": "function"
    },
    {
      "inputs": [],
      "name": "owner",
      "outputs": [
        {
          "internalType": "address",
          "name": "",
          "type": "address"
        }
      ],
      "stateMutability": "view",
      "type": "function"
    },
    {
      "inputs": [
        {
          "internalType": "uint256",
          "name": "tokenId",
          "type": "uint256"
        }
      ],
      "name": "ownerOf",
      "outputs": [
        {
          "internalType": "address",
          "name": "",
          "type": "address"
        }
      ],
      "stateMutability": "view",
      "type": "function"
    },
    {
      "inputs": [],
      "name": "renounceOwnership",
      "outputs": [],
      "stateMutability": "nonpayable",
      "type": "function"
    },
    {
      "inputs": [
        {
          "internalType": "address",
          "name": "from",
          "type": "address"
        },
        {
          "internalType": "address",
          "name": "to",
          "type": "address"
        },
        {
          "internalType": "uint256",
          "name": "tokenId",
          "type": "uint256"
        }
      ],
      "name": "safeTransferFrom",
      "outputs": [],
      "stateMutability": "nonpayable",
      "type": "function"
    },
    {
      "inputs": [
        {
          "internalType": "address",
          "name": "from",
          "type": "address"
        },
        {
          "internalType": "address",
          "name": "to",
          "type": "address"
        },
        {
          "internalType": "uint256",
          "name": "tokenId",
          "type": "uint256"
        },
        {
          "internalType": "bytes",
          "name": "data",
          "type": "bytes"
        }
      ],
      "name": "safeTransferFrom",
      "outputs": [],
      "stateMutability": "nonpayable",
      "type": "function"
    },
    {
      "inputs": [
        {
          "internalType": "address",
          "name": "operator",
          "type": "address"
        },
        {
          "internalType": "bool",
          "name": "approved",
          "type": "bool"
        }
      ],
      "name": "setApprovalForAll",
      "outputs": [],
      "stateMutability": "nonpayable",
      "type": "function"
    },
    {
      "inputs": [
        {
          "internalType": "bytes4",
          "name": "interfaceId",
          "type": "bytes4"
        }
      ],
      "name": "supportsInterface",
      "outputs": [
        {
          "internalType": "bool",
          "name": "",
          "type": "bool"
        }
      ],
      "stateMutability": "view",
      "type": "function"
    },
    {
      "inputs": [],
      "name": "symbol",
      "outputs": [
        {
          "internalType": "string",
          "name": "",
          "type": "string"
        }
      ],
      "stateMutability": "view",
      "type": "function"
    },
    {
      "inputs": [
        {
          "internalType": "uint256",
          "name": "tokenId",
          "type": "uint256"
        }
      ],
      "name": "tokenURI",
      "outputs": [
        {
          "internalType": "string",
          "name": "",
          "type": "string"
        }
      ],
      "stateMutability": "view",
      "type": "function"
    },
    {
      "inputs": [
        {
          "internalType": "address",
          "name": "from",
          "type": "address"
        },
        {
          "internalType": "address",
          "name": "to",
          "type": "address"
        },
        {
          "internalType": "uint256",
          "name": "tokenId",
          "type": "uint256"
        }
      ],
      "name": "transferFrom",
      "outputs": [],
      "stateMutability": "nonpayable",
      "type": "function"
    },
    {
      "inputs": [
        {
          "internalType": "address",
          "name": "newOwner",
          "type": "address"
        }
      ],
      "name": "transferOwnership",
      "outputs": [],
      "stateMutability": "nonpayable",
      "type": "function"
    },
    {
      "inputs": [],
      "name": "withdraw",
      "outputs": [],
      "stateMutability": "nonpayable",
      "type": "function"
    }
  ],
  "bytecode": "0x6080604052655af3107a400060075534801561001a57600080fd5b5061002961013e60201b60201c565b6040518060400160405280600781526020017f536869744e4654000000000000000000000000000000000000000000000000008152506040518060400160405280600481526020017f534849540000000000000000000000000000000000000000000000000000000081525081600090816100a4919061045c565b5080600190816100b4919061045c565b505050600073ffffffffffffffffffffffffffffffffffffffff168173ffffffffffffffffffffffffffffffffffffffff16036101295760006040517f1e4fbdf7000000000000000000000000000000000000000000000000000000008152600401610120919061056f565b60405180910390fd5b6101388161014660201b60201c565b5061058a565b600033905090565b6000600660009054906101000a900473ffffffffffffffffffffffffffffffffffffffff16905081600660006101000a81548173ffffffffffffffffffffffffffffffffffffffff021916908373ffffffffffffffffffffffffffffffffffffffff1602179055508173ffffffffffffffffffffffffffffffffffffffff168173ffffffffffffffffffffffffffffffffffffffff167f8be0079c531659141344cd1fd0a4f28419497f9722a3daafe3b4186f6b6457e060405160405180910390a35050565b600081519050919050565b7f4e487b7100000000000000000000000000000000000000000000000000000000600052604160045260246000fd5b7f4e487b7100000000000000000000000000000000000000000000000000000000600052602260045260246000fd5b6000600282049050600182168061028d57607f821691505b6020821081036102a05761029f610246565b5b50919050565b60008190508160005260206000209050919050565b60006020601f8301049050919050565b600082821b905092915050565b6000600883026103087fffffffffffffffffffffffffffffffffffffffffffffffffffffffffffffffff826102cb565b61031286836102cb565b95508019841693508086168417925050509392505050565b6000819050919050565b6000819050919050565b600061035961035461034f8461032a565b610334565b61032a565b9050919050565b6000819050919050565b6103738361033e565b61038761037f82610360565b8484546102d8565b825550505050565b600090565b61039c61038f565b6103a781848461036a565b505050565b5b818110156103cb576103c0600082610394565b6001810190506103ad565b5050565b601f821115610410576103e1816102a6565b6103ea846102bb565b810160208510156103f9578190505b61040d610405856102bb565b8301826103ac565b50505b505050565b600082821c905092915050565b600061043360001984600802610415565b1980831691505092915050565b600061044c8383610422565b9150826002028217905092915050565b6104658261020c565b67ffffffffffffffff81111561047e5761047d610217565b5b6104888254610275565b6104938282856103cf565b600060209050601f8311600181146104c657600084156104b4578287015190505b6104be8582610440565b865550610526565b601f1984166104d4866102a6565b60005b828110156104fc578489015182556001820191506020850194506020810190506104d7565b868310156105195784890151610515601f891682610422565b8355505b6001600288020188555050505b505050505050565b600073ffffffffffffffffffffffffffffffffffffffff82169050919050565b60006105598261052e565b9050919050565b6105698161054e565b82525050565b60006020820190506105846000830184610560565b92915050565b61219a806105996000396000f3fe60806040526004361061011f5760003560e01c8063715018a6116100a0578063c5c3c91311610064578063c5c3c9131461039e578063c87b56dd146103c7578063e985e9c514610404578063eab106d014610441578063f2fde38b1461046c5761011f565b8063715018a6146102df5780638da5cb5b146102f657806395d89b4114610321578063a22cb4651461034c578063b88d4fde146103755761011f565b806323b872dd116100e757806323b872dd146101fc5780633ccfd60b1461022557806342842e0e1461023c5780636352211e1461026557806370a08231146102a25761011f565b806301ffc9a71461012457806306fdde0314610161578063081812fc1461018c578063095ea7b3146101c95780631249c58b146101f2575b600080fd5b34801561013057600080fd5b5061014b600480360381019061014691906119c2565b610495565b6040516101589190611a0a565b60405180910390f35b34801561016d57600080fd5b50610176610577565b6040516101839190611ab5565b60405180910390f35b34801561019857600080fd5b506101b360048036038101906101ae9190611b0d565b610609565b6040516101c09190611b7b565b60405180910390f35b3480156101d557600080fd5b506101f060048036038101906101eb9190611bc2565b610625565b005b6101fa61063b565b005b34801561020857600080fd5b50610223600480360381019061021e9190611c02565b6106f9565b005b34801561023157600080fd5b5061023a6107fb565b005b34801561024857600080fd5b50610263600480360381019061025e9190611c02565b61091f565b005b34801561027157600080fd5b5061028c60048036038101906102879190611b0d565b61093f565b6040516102999190611b7b565b60405180910390f35b3480156102ae57600080fd5b506102c960048036038101906102c49190611c55565b610951565b6040516102d69190611c91565b60405180910390f35b3480156102eb57600080fd5b506102f4610a0b565b005b34801561030257600080fd5b5061030b610a1f565b6040516103189190611b7b565b60405180910390f35b34801561032d57600080fd5b50610336610a49565b6040516103439190611ab5565b60405180910390f35b34801561035857600080fd5b50610373600480360381019061036e9190611cd8565b610adb565b005b34801561038157600080fd5b5061039c60048036038101906103979190611e4d565b610af1565b005b3480156103aa57600080fd5b506103c560048036038101906103c09190611b0d565b610b16565b005b3480156103d357600080fd5b506103ee60048036038101906103e99190611b0d565b610b69565b6040516103fb9190611ab5565b60405180910390f35b34801561041057600080fd5b5061042b60048036038101906104269190611ed0565b610b84565b6040516104389190611a0a565b60405180910390f35b34801561044d57600080fd5b50610456610c18565b6040516104639190611c91565b60405180910390f35b34801561047857600080fd5b50610493600480360381019061048e9190611c55565b610c1e565b005b60007f80ac58cd000000000000000000000000000000000000000000000000000000007bffffffffffffffffffffffffffffffffffffffffffffffffffffffff1916827bffffffffffffffffffffffffffffffffffffffffffffffffffffffff1916148061056057507f5b5e139f000000000000000000000000000000000000000000000000000000007bffffffffffffffffffffffffffffffffffffffffffffffffffffffff1916827bffffffffffffffffffffffffffffffffffffffffffffffffffffffff1916145b80610570575061056f82610ca4565b5b9050919050565b60606000805461058690611f3f565b80601f01602080910402602001604051908101604052809291908181526020018280546105b290611f3f565b80156105ff5780601f106105d4576101008083540402835291602001916105ff565b820191906000526020600020905b8154815290600101906020018083116105e257829003601f168201915b5050505050905090565b600061061482610d0e565b5061061e82610d96565b9050919050565b6106378282610632610dd3565b610ddb565b5050565b600754341461068557346007546040517f3d8d9b5300000000000000000000000000000000000000000000000000000000815260040161067c929190611f70565b60405180910390fd5b610698610690610dd3565b600854610ded565b6008546106a3610dd3565b73ffffffffffffffffffffffffffffffffffffffff167f30385c845b448a36257a6a1716e6ad2e1bc2cbe333cde1e69fe849ad6511adfe60405160405180910390a3600860008154809291906001019190505550565b600073ffffffffffffffffffffffffffffffffffffffff168273ffffffffffffffffffffffffffffffffffffffff160361076b5760006040517f64a0ae920000000000000000000000000000000000000000000000000000000081526004016107629190611b7b565b60405180910390fd5b600061077f838361077a610dd3565b610e0b565b90508373ffffffffffffffffffffffffffffffffffffffff168173ffffffffffffffffffffffffffffffffffffffff16146107f5578382826040517f64283d7b0000000000000000000000000000000000000000000000000000000081526004016107ec93929190611f99565b60405180910390fd5b50505050565b610803611025565b60004790506000610812610a1f565b73ffffffffffffffffffffffffffffffffffffffff168260405161083590612001565b60006040518083038185875af1925050503d8060008114610872576040519150601f19603f3d011682016040523d82523d6000602084013e610877565b606091505b50509050806108c657610888610a1f565b826040517f55b125700000000000000000000000000000000000000000000000000000000081526004016108bd929190612016565b60405180910390fd5b6108ce610a1f565b73ffffffffffffffffffffffffffffffffffffffff167f884edad9ce6fa2440d8a54cc123490eb96d2768479d49ff9c7366125a9424364836040516109139190611c91565b60405180910390a25050565b61093a83838360405180602001604052806000815250610af1565b505050565b600061094a82610d0e565b9050919050565b60008073ffffffffffffffffffffffffffffffffffffffff168273ffffffffffffffffffffffffffffffffffffffff16036109c45760006040517f89c62b640000000000000000000000000000000000000000000000000000000081526004016109bb9190611b7b565b60405180910390fd5b600360008373ffffffffffffffffffffffffffffffffffffffff1673ffffffffffffffffffffffffffffffffffffffff168152602001908152602001600020549050919050565b610a13611025565b610a1d60006110ac565b565b6000600660009054906101000a900473ffffffffffffffffffffffffffffffffffffffff16905090565b606060018054610a5890611f3f565b80601f0160208091040260200160405190810160405280929190818152602001828054610a8490611f3f565b8015610ad15780601f10610aa657610100808354040283529160200191610ad1565b820191906000526020600020905b815481529060010190602001808311610ab457829003601f168201915b5050505050905090565b610aed610ae6610dd3565b8383611172565b5050565b610afc8484846106f9565b610b10610b07610dd3565b858585856112e1565b50505050565b610b1e611025565b60006007549050816007819055507f41da850196384935f6ab9162e78a587d79708633439fae04be7b0cb9e109abc38183604051610b5d929190611f70565b60405180910390a15050565b6060610b7482610d0e565b50610b7d611492565b9050919050565b6000600560008473ffffffffffffffffffffffffffffffffffffffff1673ffffffffffffffffffffffffffffffffffffffff16815260200190815260200160002060008373ffffffffffffffffffffffffffffffffffffffff1673ffffffffffffffffffffffffffffffffffffffff16815260200190815260200160002060009054906101000a900460ff16905092915050565b60075481565b610c26611025565b600073ffffffffffffffffffffffffffffffffffffffff168173ffffffffffffffffffffffffffffffffffffffff1603610c985760006040517f1e4fbdf7000000000000000000000000000000000000000000000000000000008152600401610c8f9190611b7b565b60405180910390fd5b610ca1816110ac565b50565b60007f01ffc9a7000000000000000000000000000000000000000000000000000000007bffffffffffffffffffffffffffffffffffffffffffffffffffffffff1916827bffffffffffffffffffffffffffffffffffffffffffffffffffffffff1916149050919050565b600080610d1a836114b2565b9050600073ffffffffffffffffffffffffffffffffffffffff168173ffffffffffffffffffffffffffffffffffffffff1603610d8d57826040517f7e273289000000000000000000000000000000000000000000000000000000008152600401610d849190611c91565b60405180910390fd5b80915050919050565b60006004600083815260200190815260200160002060009054906101000a900473ffffffffffffffffffffffffffffffffffffffff169050919050565b600033905090565b610de883838360016114ef565b505050565b610e078282604051806020016040528060008152506116b4565b5050565b600080610e17846114b2565b9050600073ffffffffffffffffffffffffffffffffffffffff168373ffffffffffffffffffffffffffffffffffffffff1614610e5957610e588184866116d8565b5b600073ffffffffffffffffffffffffffffffffffffffff168173ffffffffffffffffffffffffffffffffffffffff1614610eea57610e9b6000856000806114ef565b6001600360008373ffffffffffffffffffffffffffffffffffffffff1673ffffffffffffffffffffffffffffffffffffffff168152602001908152602001600020600082825403925050819055505b600073ffffffffffffffffffffffffffffffffffffffff168573ffffffffffffffffffffffffffffffffffffffff1614610f6d576001600360008773ffffffffffffffffffffffffffffffffffffffff1673ffffffffffffffffffffffffffffffffffffffff168152602001908152602001600020600082825401925050819055505b846002600086815260200190815260200160002060006101000a81548173ffffffffffffffffffffffffffffffffffffffff021916908373ffffffffffffffffffffffffffffffffffffffff160217905550838573ffffffffffffffffffffffffffffffffffffffff168273ffffffffffffffffffffffffffffffffffffffff167fddf252ad1be2c89b69c2b068fc378daa952ba7f163c4a11628f55a4df523b3ef60405160405180910390a4809150509392505050565b61102d610dd3565b73ffffffffffffffffffffffffffffffffffffffff1661104b610a1f565b73ffffffffffffffffffffffffffffffffffffffff16146110aa5761106e610dd3565b6040517f118cdaa70000000000000000000000000000000000000000000000000000000081526004016110a19190611b7b565b60405180910390fd5b565b6000600660009054906101000a900473ffffffffffffffffffffffffffffffffffffffff16905081600660006101000a81548173ffffffffffffffffffffffffffffffffffffffff021916908373ffffffffffffffffffffffffffffffffffffffff1602179055508173ffffffffffffffffffffffffffffffffffffffff168173ffffffffffffffffffffffffffffffffffffffff167f8be0079c531659141344cd1fd0a4f28419497f9722a3daafe3b4186f6b6457e060405160405180910390a35050565b600073ffffffffffffffffffffffffffffffffffffffff168273ffffffffffffffffffffffffffffffffffffffff16036111e357816040517f5b08ba180000000000000000000000000000000000000000000000000000000081526004016111da9190611b7b565b60405180910390fd5b80600560008573ffffffffffffffffffffffffffffffffffffffff1673ffffffffffffffffffffffffffffffffffffffff16815260200190815260200160002060008473ffffffffffffffffffffffffffffffffffffffff1673ffffffffffffffffffffffffffffffffffffffff16815260200190815260200160002060006101000a81548160ff0219169083151502179055508173ffffffffffffffffffffffffffffffffffffffff168373ffffffffffffffffffffffffffffffffffffffff167f17307eab39ab6107e8899845ad3d59bd9653f200f220920489ca2b5937696c31836040516112d49190611a0a565b60405180910390a3505050565b60008373ffffffffffffffffffffffffffffffffffffffff163b111561148b578273ffffffffffffffffffffffffffffffffffffffff1663150b7a02868685856040518563ffffffff1660e01b81526004016113409493929190612094565b6020604051808303816000875af192505050801561137c57506040513d601f19601f8201168201806040525081019061137991906120f5565b60015b611400573d80600081146113ac576040519150601f19603f3d011682016040523d82523d6000602084013e6113b1565b606091505b5060008151036113f857836040517f64a0ae920000000000000000000000000000000000000000000000000000000081526004016113ef9190611b7b565b60405180910390fd5b805160208201fd5b63150b7a0260e01b7bffffffffffffffffffffffffffffffffffffffffffffffffffffffff1916817bffffffffffffffffffffffffffffffffffffffffffffffffffffffff19161461148957836040517f64a0ae920000000000000000000000000000000000000000000000000000000081526004016114809190611b7b565b60405180910390fd5b505b5050505050565b606060405180608001604052806042815260200161212360429139905090565b60006002600083815260200190815260200160002060009054906101000a900473ffffffffffffffffffffffffffffffffffffffff169050919050565b80806115285750600073ffffffffffffffffffffffffffffffffffffffff168273ffffffffffffffffffffffffffffffffffffffff1614155b1561165c57600061153884610d0e565b9050600073ffffffffffffffffffffffffffffffffffffffff168373ffffffffffffffffffffffffffffffffffffffff16141580156115a357508273ffffffffffffffffffffffffffffffffffffffff168173ffffffffffffffffffffffffffffffffffffffff1614155b80156115b657506115b48184610b84565b155b156115f857826040517fa9fbf51f0000000000000000000000000000000000000000000000000000000081526004016115ef9190611b7b565b60405180910390fd5b811561165a57838573ffffffffffffffffffffffffffffffffffffffff168273ffffffffffffffffffffffffffffffffffffffff167f8c5be1e5ebec7d5bd14f71427d1e84f3dd0314c0f7b2291e5b200ac8c7c3b92560405160405180910390a45b505b836004600085815260200190815260200160002060006101000a81548173ffffffffffffffffffffffffffffffffffffffff021916908373ffffffffffffffffffffffffffffffffffffffff16021790555050505050565b6116be838361179c565b6116d36116c9610dd3565b60008585856112e1565b505050565b6116e3838383611895565b61179757600073ffffffffffffffffffffffffffffffffffffffff168373ffffffffffffffffffffffffffffffffffffffff160361175857806040517f7e27328900000000000000000000000000000000000000000000000000000000815260040161174f9190611c91565b60405180910390fd5b81816040517f177e802f00000000000000000000000000000000000000000000000000000000815260040161178e929190612016565b60405180910390fd5b505050565b600073ffffffffffffffffffffffffffffffffffffffff168273ffffffffffffffffffffffffffffffffffffffff160361180e5760006040517f64a0ae920000000000000000000000000000000000000000000000000000000081526004016118059190611b7b565b60405180910390fd5b600061181c83836000610e0b565b9050600073ffffffffffffffffffffffffffffffffffffffff168173ffffffffffffffffffffffffffffffffffffffff16146118905760006040517f73c6ac6e0000000000000000000000000000000000000000000000000000000081526004016118879190611b7b565b60405180910390fd5b505050565b60008073ffffffffffffffffffffffffffffffffffffffff168373ffffffffffffffffffffffffffffffffffffffff161415801561194d57508273ffffffffffffffffffffffffffffffffffffffff168473ffffffffffffffffffffffffffffffffffffffff16148061190e575061190d8484610b84565b5b8061194c57508273ffffffffffffffffffffffffffffffffffffffff1661193483610d96565b73ffffffffffffffffffffffffffffffffffffffff16145b5b90509392505050565b6000604051905090565b600080fd5b600080fd5b60007fffffffff0000000000000000000000000000000000000000000000000000000082169050919050565b61199f8161196a565b81146119aa57600080fd5b50565b6000813590506119bc81611996565b92915050565b6000602082840312156119d8576119d7611960565b5b60006119e6848285016119ad565b91505092915050565b60008115159050919050565b611a04816119ef565b82525050565b6000602082019050611a1f60008301846119fb565b92915050565b600081519050919050565b600082825260208201905092915050565b60005b83811015611a5f578082015181840152602081019050611a44565b60008484015250505050565b6000601f19601f8301169050919050565b6000611a8782611a25565b611a918185611a30565b9350611aa1818560208601611a41565b611aaa81611a6b565b840191505092915050565b60006020820190508181036000830152611acf8184611a7c565b905092915050565b6000819050919050565b611aea81611ad7565b8114611af557600080fd5b50565b600081359050611b0781611ae1565b92915050565b600060208284031215611b2357611b22611960565b5b6000611b3184828501611af8565b91505092915050565b600073ffffffffffffffffffffffffffffffffffffffff82169050919050565b6000611b6582611b3a565b9050919050565b611b7581611b5a565b82525050565b6000602082019050611b906000830184611b6c565b92915050565b611b9f81611b5a565b8114611baa57600080fd5b50565b600081359050611bbc81611b96565b92915050565b60008060408385031215611bd957611bd8611960565b5b6000611be785828601611bad565b9250506020611bf885828601611af8565b9150509250929050565b600080600060608486031215611c1b57611c1a611960565b5b6000611c2986828701611bad565b9350506020611c3a86828701611bad565b9250506040611c4b86828701611af8565b9150509250925092565b600060208284031215611c6b57611c6a611960565b5b6000611c7984828501611bad565b91505092915050565b611c8b81611ad7565b82525050565b6000602082019050611ca66000830184611c82565b92915050565b611cb5816119ef565b8114611cc057600080fd5b50565b600081359050611cd281611cac565b92915050565b60008060408385031215611cef57611cee611960565b5b6000611cfd85828601611bad565b9250506020611d0e85828601611cc3565b9150509250929050565b600080fd5b600080fd5b7f4e487b7100000000000000000000000000000000000000000000000000000000600052604160045260246000fd5b611d5a82611a6b565b810181811067ffffffffffffffff82111715611d7957611d78611d22565b5b80604052505050565b6000611d8c611956565b9050611d988282611d51565b919050565b600067ffffffffffffffff821115611db857611db7611d22565b5b611dc182611a6b565b9050602081019050919050565b82818337600083830152505050565b6000611df0611deb84611d9d565b611d82565b905082815260208101848484011115611e0c57611e0b611d1d565b5b611e17848285611dce565b509392505050565b600082601f830112611e3457611e33611d18565b5b8135611e44848260208601611ddd565b91505092915050565b60008060008060808587031215611e6757611e66611960565b5b6000611e7587828801611bad565b9450506020611e8687828801611bad565b9350506040611e9787828801611af8565b925050606085013567ffffffffffffffff811115611eb857611eb7611965565b5b611ec487828801611e1f565b91505092959194509250565b60008060408385031215611ee757611ee6611960565b5b6000611ef585828601611bad565b9250506020611f0685828601611bad565b9150509250929050565b7f4e487b7100000000000000000000000000000000000000000000000000000000600052602260045260246000fd5b60006002820490506001821680611f5757607f821691505b602082108103611f6a57611f69611f10565b5b50919050565b6000604082019050611f856000830185611c82565b611f926020830184611c82565b9392505050565b6000606082019050611fae6000830186611b6c565b611fbb6020830185611c82565b611fc86040830184611b6c565b949350505050565b600081905092915050565b50565b6000611feb600083611fd0565b9150611ff682611fdb565b600082019050919050565b600061200c82611fde565b9150819050919050565b600060408201905061202b6000830185611b6c565b6120386020830184611c82565b9392505050565b600081519050919050565b600082825260208201905092915050565b60006120668261203f565b612070818561204a565b9350612080818560208601611a41565b61208981611a6b565b840191505092915050565b60006080820190506120a96000830187611b6c565b6120b66020830186611b6c565b6120c36040830185611c82565b81810360608301526120d5818461205b565b905095945050505050565b6000815190506120ef81611996565b92915050565b60006020828403121561210b5761210a611960565b5b6000612119848285016120e0565b9150509291505056fe697066733a2f2f6261666b72656965686b626276626c32626237726775377a6576716472747836726b6234707868616c787477786b69706869617476706767786d69a26469706673582212205696e7aae9509ae23b42d6884187500fbf8eaf5bff9aee1122caca91a3ff2a4d64736f6c634300081c0033",
  "linkReferences": {},
  "deployedLinkReferences": {}
}